:020000040800F2
:1000000000500020191A000851190008531900085F
:100010005519000857190008591900080000000078
:100020000000000000000000000000005B19000854
:100030005D190008000000005F1900086119000840
:10004000611A0008611A0008611A0008611A0008A4
:10005000611A0008611A0008611A0008611A000894
:10006000611A0008611A0008611A0008611A000884
:10007000611A0008611A0008611A0008611A000874
:10008000611A0008611A0008611A0008611A000864
:10009000611A0008611A0008611A0008611A000854
:1000A000611A0008611A0008611A0008611A000844
:1000B000611A0008611A0008611A0008611A000834
:1000C000611A0008611A0008611A0008611A000824
:1000D000611A0008611A0008611A0008611A000814
:1000E000611A0008611A0008611A00080000000087
:1000F0000000000000000000000000000000000000
:0C01000000000000000000005FF808F1A3
:10010C0010B5054C237833B9044B13B10448AFF345
:10011C0000800123237010BDDC01002000000000D2
:10012C00F82B000808B5034B1BB103490348AFF388
:10013C00008008BD00000000E0010020F82B000842
:10014C00034613F8012B002AFBD1181A013870470B
:10015C0038B50E4B054618784FF47A73B3FBF0F3B1
:10016C000B4A1068B0FBF3F000F092F8044658B953
:10017C000F2D09D8024629464FF0FF3000F054F8F5
:10018C00044B20461D6038BD012038BD0000002006
:10019C000800002004000020074A08B5136803205B
:1001AC0043F01003136000F02DF80020FFF7D0FF90
:1001BC0001F02EFB002008BD00200240034A044B36
:1001CC0011681B780B441360704700BF04020020B9
:1001DC0000000020014B1868704700BF040200208B
:1001EC0038B50446FFF7F6FF0546631C1EBF044BEB
:1001FC001B78E418FFF7EEFF401B8442FAD838BD99
:10020C0000000020074A0002D36800F4E06023F4E9
:10021C00E0631B041B0C43F0BF6343F40033034344
:10022C00D360704700ED00E0174B30B5DC68C4F3C9
:10023C000224C4F10703251D042B28BF0423062D1B
:10024C004FF0010598BF002405FA03F303F1FF33C7
:10025C0088BF033C1940A14005FA04F4013C22403C
:10026C00002842EA01024FEA0212AFBF00F16040DF
:10027C00064B00F00F00D2B2A5BFD2B200F5614020
:10028C001A5480F8002330BD00ED00E014ED00E0BE
:10029C000138B0F1807F0AD2F021064B064A586033
:1002AC0082F823100020072298601A607047012002
:1002BC00704700BF10E000E000ED00E02DE9F74FC3
:1002CC0000221646654BDFF8A4E1DFF8A4C14FF01D
:1002DC0001080C6808FA06F808EA0404A0457FD166
:1002EC004D68122D00F0AF8000F28880022D00F0D6
:1002FC00A7807CD8002D00F08E80012D00F09E8010
:10030C004FF00F09FF2C93BF824606F18045083D44
:10031C00D0F800B092BFB500D0F804B0AD0009FA27
:10032C0005F82BEA080802FA05F588BF00F1040A63
:10033C0048EA0505CAF80050D1F804A01AF0805F0D
:10034C004ED0474D464FAD6926F0030845F00105E8
:10035C00BD61BD6908F1804805F00105019508F5FE
:10036C00803806F0030B019D4FEA8B0BD8F8085030
:10037C0009FA0BF925EA09093A4DA84268D005F5A6
:10038C008065A84266D005F58065A84264D005F565
:10039C008065A8420CBF0325042505FA0BF545EA38
:1003AC000905C8F808501D681AF4803F14BF25438E
:1003BC00A5431D605D681AF4003F14BF2543A54397
:1003CC005D609D681AF4801F14BF2543A5439D6092
:1003DC00DD681AF4001F14BF2C4325EA0404DC600A
:1003EC000136102E7FF473AF03B0BDE8F08F032DF0
:1003FC0022D0112D84D1CA68043281E71A4FBD4234
:10040C0009D012D8DFF86C904D4504D009F580392D
:10041C004D457FF475AF8A68C2B1012A0CBFC0F894
:10042C001080C0F8148008226AE77545F3D0654542
:10043C00F1D0DFF84490EBE7002261E7CA685FE790
:10044C00CA6808325CE7CA680C3259E7042257E7DD
:10045C000025A2E70125A0E702259EE70004014044
:10046C000010024000080140000021100000311073
:10047C000000321000001110000022108368194295
:10048C0014BF0120002070470AB1016170470904B4
:10049C00FBE70268536913F480630DD06FF480633B
:1004AC0053610423202203640023036380F83C304F
:1004BC0080F83D2001207047184670472DE9F8431D
:1004CC00044617469946C1F307488EB22568B8F121
:1004DC00010F0CBF6B69AB6936EA030314BF012033
:1004EC00002008B9BDE8F8836B695A0512D52B6852
:1004FC00202243F400732B606FF480636B61042340
:10050C00236400230120236384F83C3084F83D20CD
:10051C00BDE8F8837B1CD9D04FB90023202223637C
:10052C0084F83C3084F83D200320BDE8F883FFF7C5
:10053C0051FEA0EB09008742C8D2EEE72DE9F84343
:10054C00044690461F46089EC1F307498DB22368A6
:10055C00B9F1010F0CBF5B699B6935EA03030CBF52
:10056C0001230023434502D00020BDE8F8837B1C07
:10057C00EDD05FB900232022236384F83C3084F84B
:10058C003D20032084F83E30BDE8F883FFF722FEBF
:10059C00801B8742DBD2EDE770B504460D4616464C
:1005AC0023685B691B0601D5002070BD2046FFF750
:1005BC0070FFA8B96A1CF3D065B9236C202243F0F4
:1005CC002003236400230320236384F83C3084F845
:1005DC003D2070BDFFF7FEFD801B8542E0D2ECE7AD
:1005EC00012070BD70B504460D46164623685B6944
:1005FC005B0701D5002070BD2046FFF74AFFA8B964
:10060C006A1CF3D065B9236C202243F020032364C9
:10061C0000230320236384F83C3084F83D2070BD14
:10062C00FFF7D8FD801B8542E0D2ECE7012070BDBE
:10063C0038B5044608B9012038BD90F83D3003F0B8
:10064C00FF021BB980F83C2001F004F92423226836
:10065C0084F83D30136823F00103136000F0B8FBFD
:10066C0063682F4A934230D82E4A9042E3D92E4ADF
:10067C002168B0FBF2F24A6001320A62284A013862
:10068C00934232D85B00B0FBF3F0431CC3F30B0373
:10069C00042B38BF0423CB61226AE3690020134387
:1006AC000B60E268236913438B60A269636913438F
:1006BC00CB600B6843F001030B602023206484F8AB
:1006CC003D30206384F83E0038BD184A9042B2D9C0
:1006DC00154D4FF49672B0FBF5F521686A434D60E9
:1006EC004FF47A75B2FBF5F2C6E7A26852B903EB88
:1006FC004303B0FBF3F0431CC3F30B036BB143F4A4
:10070C000043C8E719225343B0FBF3F0431CC3F377
:10071C000B0313B143F44043BDE70123BBE700BF18
:10072C00A08601007F841E0040420F00FF083D00A0
:10073C002DE9FF4104461F460D469046FFF74AFD42
:10074C0094F83D300646202B04D00225284604B0F0
:10075C00BDE8F0810090192301225D492046FFF786
:10076C00EDFE0028F1D194F83C30012BEDD00123A3
:10077C0084F83C3023681A68D2075EBF1A6842F0CE
:10078C0001021A601A6822F400621A60212284F8AD
:10079C003D20102284F83E2000222264A2F58032F3
:1007AC006785E262628DC4F824802285E26A042A9D
:1007BC0004D0012A02D012F5803F04D11A6842F409
:1007CC0080721A6002E0226B122AF7D000960A9B04
:1007DC0000224FF001112046FFF7B0FE28BB236921
:1007EC002268B3F5804F12D105F0FE051561334632
:1007FC000A9A38492046FFF761FE0546A0B92368DE
:10080C0003905A6903929B690393039B50E0EB118D
:10081C0003F0060343F0F00313612F4933460A9AA1
:10082C002046FFF74BFE48B1236C236C042B4FF092
:10083C00000307D184F83C30012587E72368EDB22B
:10084C001D61D4E784F83C3003257FE732460A99D2
:10085C002046FFF7A1FE40B1236C042BF4D1226893
:10086C00136843F400731360E6E7616A20684B1C5D
:10087C0063620B78228D0361638D013B9BB26385B0
:10088C004769531E9BB27F0723850AD54BB18B1C3E
:10089C0063624B78023A0361638D2285013B9BB204
:1008AC00638532460A992046FFF79CFE0028D3D177
:1008BC00238D002BCAD121680A6842F400720A60A9
:1008CC00202284F83C3084F83D2084F83E303DE70B
:1008DC0002001000020001000800010003682DE96D
:1008EC00F341DB07054610D42B689F075ED42B68B9
:1008FC00190700F195802B685A0700F1BF80EA694F
:10090C00002A40F02D81002014E0904C636803F025
:10091C000C03042B07D0636803F00C03082B0CD1D9
:10092C006368DE0309D523689C03DDD56B68002B57
:10093C00DAD1012002B0BDE8F0816B68B3F5803FDD
:10094C0010D1236843F480332360FFF743FC064641
:10095C0023689803C8D4FFF73DFC801B6428F7D9A3
:10096C000320E7E79BB9236823F4803323602368D3
:10097C0023F480232360FFF72DFC0646236899039C
:10098C00B2D5FFF727FC801B6428F7D9E8E7B3F54D
:10099C00A02F236803D143F480232360D1E723F4F1
:1009AC0080332360236823F48023CDE7674C63688E
:1009BC0013F00C0F07D0636803F00C03082B10D155
:1009CC006368DA030DD423689B0702D52B69012BCE
:1009DC00AFD123686A6923F0F80343EAC2032360AA
:1009EC0085E72A695A4B6AB101221A60FFF7F2FBBC
:1009FC00064623689F07ECD4FFF7ECFB801B02280C
:100A0C00F7D9ADE71A60FFF7E5FB064623689807B0
:100A1C007FF56DAFFFF7DEFB801B0228F6D99FE751
:100A2C00AA694A4C4B4BDAB101221A60FFF7D2FB90
:100A3C000646636A9B070DD54FF4FA52464B1B686A
:100A4C00B3FBF2F3019300BF019B5A1E0192002BE2
:100A5C00F9D150E7FFF7BEFB801B0228E9D97FE7ED
:100A6C001A60FFF7B7FB0646636A9F077FF543AF33
:100A7C00FFF7B0FB801B0228F6D971E7334CE36912
:100A8C00D80024D40127E36943F08053E361E36980
:100A9C0003F080530093009B304E3368D90518D572
:100AAC00EB68012B26D1236A43F001032362FFF785
:100ABC0091FB41F288368046236A9B073FD5002F75
:100ACC003FF41DAFE36923F08053E36117E7002780
:100ADC00E2E7336843F480733360FFF77BFB8046B7
:100AEC003368DA05DCD4FFF775FBA0EB080064284B
:100AFC00F6D935E7ABB9236A41F2883823F0010304
:100B0C002362236A23F004032362FFF763FB064688
:100B1C00236A9807D3D5FFF75DFB801B4045F7D9B7
:100B2C001EE7052B236A03D143F004032362BAE7C3
:100B3C0023F001032362236A23F00403B6E7FFF7D3
:100B4C0049FBA0EB0800B042B6D909E700100240FF
:100B5C000000424280044242080000200070004025
:100B6C00224C636803F00C03082B3FF4E2AE002325
:100B7C001F4E022A33602BD1FFF72CFB074623684C
:100B8C0099011FD42B6AB3F5803F05D16268A9681F
:100B9C0022F400320A436260696A62680B4322F4F1
:100BAC0074121343636001233360FFF713FB054694
:100BBC0023689A013FF5A7AEFFF70CFB401B0228F8
:100BCC00F6D9CDE6FFF706FBC01B0228D7D9C7E63E
:100BDC00FFF700FB054623689B017FF594AEFFF7FA
:100BEC00F9FA401B0228F6D9BAE600BF0010024001
:100BFC006000424230B5194B87B002AC03F11005CE
:100C0C00224618685968083303C2AB421446F7D120
:100C1C0001238DF80430022311498DF805304B68FF
:100C2C0003F00C02082A17D1C3F3834206A802442E
:100C3C00DB0312F8102C0CD54B680A48C3F3404365
:100C4C00504306AA134413F8143CB0FBF3F007B05E
:100C5C0030BD05485043FAE70248F8E7102C00086D
:100C6C000010024000127A0000093D00544A2DE9A0
:100C7C00F0411368054603F007038B420E462AD356
:100C8C0029688C0734D4CA0747D44D4A136803F03B
:100C9C0007039E42C0F082802A684A4C12F0040F6F
:100CAC0040F08780130706D563682A6923F46053E4
:100CBC0043EAC2036360FFF79DFF6368424AC3F3D4
:100CCC000313D35CD840414B18600020FFF740FA67
:100CDC000020BDE8F081136823F007030B43136079
:100CEC00136803F007039942CAD00120BDE8F081D4
:100CFC00344B11F0040F1EBF5A6842F4E0625A6084
:100D0C00080742BF5A6842F460525A605A68A86891
:100D1C0022F0F00202435A60B5E76A68294C012AB6
:100D2C0023681CD113F4003FDFD0636841F288388C
:100D3C0023F0030313436360FFF74CFA6B68074619
:100D4C00012B14D1636803F00C03042B9DD0FFF727
:100D5C0041FAC01B4045F5D90320BDE8F081022AB9
:100D6C0002D113F0007FDFE713F0020FDCE7022B58
:100D7C000FD1636803F00C03082B86D0FFF72AFA17
:100D8C00C01B4045F5D9E7E7FFF724FAC01B4045E7
:100D9C00E2D8636813F00C0FF6D176E7136823F0F2
:100DAC00070333431360136803F007039E429CD17F
:100DBC0072E76368E96823F4E0630B43636071E7EF
:100DCC000020024000100240312C000808000020D6
:100DDC00044B054A5B68C3F30223D35C034A1068D7
:100DEC00D840704700100240412C00080800002039
:100DFC00044B054A5B68C3F3C223D35C034A1068F7
:100E0C00D840704700100240412C00080800002018
:100E1C002DE9F0470568C2682B69016923F440533A
:100E2C0013432B618368EA680B43416922F4B05287
:100E3C0022F00C020B431343EB606B69826923F4C1
:100E4C00407313436B61404B81469D424FF0190434
:100E5C0046D1FFF7CDFF04FB00F3D9F804604FF047
:100E6C006408B600B3FBF6F3B3FBF8F31E01FFF70F
:100E7C00BFFF6043D9F804309B00B0FBF3F7FFF7DA
:100E8C00B7FF6043D9F804309B00B0FBF3F3B3FB1E
:100E9C00F8F308FB13731B013233B3FBF8F303F0C5
:100EAC00F007FFF7A5FF6043D9F804209200B0FBD0
:100EBC00F2FAFFF79DFF6043D9F804309B00B0FBBA
:100ECC00F3F3B3FBF8F308FB13A31B013233B3FBAF
:100EDC00F8F303F00F033B433344AB60BDE8F087FA
:100EEC00FFF776FF04FB00F3D9F804604FF06408B9
:100EFC00B600B3FBF6F3B3FBF8F31E01FFF768FF84
:100F0C006043D9F804309B00B0FBF3F7FFF760FFA8
:100F1C006043D9F804309B00B0FBF3F3B3FBF8F358
:100F2C0008FB13731B013233B3FBF8F303F0F00728
:100F3C00FFF74EFF6043D9F804209200B0FBF2FAA1
:100F4C00FFF746FFB7E700BF00380140F8B504468D
:100F5C000E4617461D4621680B6836EA030301D17D
:100F6C000020F8BD6B1CF7D095B923680320DA6814
:100F7C0022F4D072DA605A6922F001025A612023FD
:100F8C0084F8393084F83A30002384F83830F8BDCE
:100F9C00FFF720F9C01B8542DDD2E6E710B5044609
:100FAC0040B390F8393003F0FF021BB980F83820B9
:100FBC0000F08CFC2423226884F83930D368204656
:100FCC0023F40053D360FFF723FF236800201A6932
:100FDC0022F490421A615A6922F02A025A61DA68A4
:100FEC0042F40052DA602023E06384F8393084F84C
:100FFC003A3010BD012010BD2DE9F0411F4690F88C
:10100C0039300446202B0D4690464ED1002949D04C
:10101C00002A47D090F83830012B46D0012380F8B5
:10102C0038300023C363212380F83930FFF7D2F81E
:10103C000646A4F82480A4F82680E38C9BB26BB9F6
:10104C003B46324640212046FFF780FFA8B92023BB
:10105C0084F8380084F83930BDE8F081E38C3246EE
:10106C00013B9BB2E384A3688021B3F5805F2046EB
:10107C003B460ED1FFF76AFF10B10320BDE8F081AB
:10108C002B882268C3F308035360236943B90235E4
:10109C00D3E7FFF75BFF0028EFD123682A785A606B
:1010AC000135CAE70120BDE8F0810220BDE8F081DE
:1010BC0010B514464FF0FF3392B20248FFF79CFF75
:1010CC00204610BD5C02002010B5002280219848FB
:1010DC00FFF7DAF9012240219548FFF7D5F90122F3
:1010EC0020219348FFF7D0F9102191480122FFF7F6
:1010FC00CBF910218F48FFF7C1F940B98D4C102165
:10110C002046FFF7BBF90028F9D0312010BD202173
:10111C008848FFF7B3F940B9864C20212046FFF7E9
:10112C00ADF90028F9D0322010BD02218048FFF71C
:10113C00A5F940B97E4C02212046FFF79FF9002803
:10114C00F9D0332010BD01217948FFF797F940B948
:10115C00774C01212046FFF791F90028F9D0412066
:10116C0010BD012280217248FFF78EF90022402128
:10117C006F48FFF789F9012220216D48FFF784F9A8
:10118C0010216B480122FFF77FF910216948FFF706
:10119C0075F940B9674C10212046FFF76FF900280C
:1011AC00F9D0342010BD20216248FFF767F940B90F
:1011BC00604C20212046FFF761F90028F9D035203A
:1011CC0010BD02215A48FFF759F940B9584C022179
:1011DC002046FFF753F90028F9D0362010BD012125
:1011EC005348FFF74BF940B9514C01212046FFF70A
:1011FC0045F90028F9D0422010BD012280214C482D
:10120C00FFF742F9012240214948FFF73DF900223E
:10121C0020214748FFF738F9102145480122FFF7F4
:10122C0033F910214348FFF729F940B9414C1021FB
:10123C002046FFF723F90028F9D0372010BD2021D4
:10124C003C48FFF71BF940B93A4C20212046FFF7E8
:10125C0015F90028F9D0382010BD02213448FFF7C9
:10126C000DF940B9324C02212046FFF707F900284E
:10127C00F9D0392010BD01212D48FFF7FFF840B9F6
:10128C002B4C01212046FFF7F9F80028F9D0432018
:10129C0010BD012280212648FFF7F6F801224021DB
:1012AC002348FFF7F1F8012220212148FFF7ECF841
:1012BC0010211F480022FFF7E7F810211D48FFF707
:1012CC00DDF840B91B4C10212046FFF7D7F8002859
:1012DC00F9D02A2010BD20211648FFF7CFF840B9CD
:1012EC00144C20212046FFF7C9F80028F9D03020F3
:1012FC0010BD02210E48FFF7C1F840B90C4C022179
:10130C002046FFF7BBF80028F9D0232010BD01219F
:10131C000748FFF7B3F840B9054C01212046FFF709
:10132C00ADF80028F9D0442010BD012010BD00BF3D
:10133C0000080140000C01402DE9FF4104464FF428
:10134C007A7820F00F0676B246F00D0304AD214FEB
:10135C0005F8013DCDF8008001232A464E21384680
:10136C00FFF7E6F90028F5D14FF47A7746F0090635
:10137C008DF80F60174E009701232A464E213046F8
:10138C00FFF7D6F90028F6D14FF47A77240164B22E
:10139C0044F00D030F4E8DF80F30009701232A46B1
:1013AC004E213046FFF7C4F90028F6D14FF47A7677
:1013BC0044F009048DF80F40064C009601232A4690
:1013CC004E212046FFF7B4F90028F6D104B0BDE851
:1013DC00F08100BF080200202DE9FF4104464FF4C4
:1013EC007A7820F00F0676B246F00C0304AD214F4C
:1013FC0005F8013DCDF8008001232A464E213846E0
:10140C00FFF796F90028F5D14FF47A7746F00806E5
:10141C008DF80F60174E009701232A464E21304657
:10142C00FFF786F90028F6D14FF47A77240164B2DD
:10143C0044F00C030F4E8DF80F30009701232A4611
:10144C004E213046FFF774F90028F6D14FF47A7626
:10145C0044F008048DF80F40064C009601232A46F0
:10146C004E212046FFF764F90028F6D104B0BDE800
:10147C00F08100BF08020020F0B54FF47A7700012C
:10148C0085B044B244F00C0304AD0F4E05F8013D99
:10149C00009701232A464E213046FFF749F90028D0
:1014AC00F6D14FF47A7644F008048DF80F40064CD0
:1014BC00009601232A464E212046FFF739F90028D1
:1014CC00F6D105B0F0BD00BF0802002008B56420BD
:1014DC00FEF786FE0320FFF7CFFF0520FEF780FE08
:1014EC000320FFF7C9FF0320FFF7C6FF0220FFF719
:1014FC00C3FF2820FFF770FF0820FFF76DFF0120C6
:10150C00FFF76AFF0320FEF76BFE0620FFF764FF70
:10151C00BDE808400C20FFF75FBF08B50120FFF7BE
:10152C005BFFBDE808400220FEF75ABE10B5441E12
:10153C0014F8010F00B910BDFFF7FEFEF8E738B53F
:10154C0004460D46FEF7FCFD00232554044463704D
:10155C0038BD10B590B02822002106A800F0AAFAD8
:10156C000021142201A800F0A5FA4FF480330122C7
:10157C00022407930E934FF4E01306A806920A92E6
:10158C000F930D94FFF7AAF90F234FF48062019388
:10159C000023214601A80294039304920593FFF7BC
:1015AC0065FB10B010BD00002DE9F0470024A6B07B
:1015BC008DF810408DF81C408DF82840FEF7ECFD9E
:1015CC00884800F0DBFAFFF7C4FF102221460DA873
:1015DC0000F070FA844BF0219A69844842F02002A2
:1015EC009A619A69A14602F020020192019A9A69C5
:1015FC00A04642F004029A619A69254602F0040260
:10160C000292029A9A69A24642F008029A619B6978
:10161C00224603F008030393039BFEF735FF0323D5
:10162C000DA972480D930E940F94FEF747FEF0230C
:10163C000D9301230E9302230DA96C4810930F9464
:10164C00FEF73CFE30230DA969480D930E940F94C0
:10165C00FEF734FE6748684A684B846080E80C00EB
:10166C004FF48043C460036144618461C4610462CB
:10167C00FEF7DEFF4FF4E13361486249846080E895
:10168C000A000C23C460436104618461C461FFF7E8
:10169C0085FCFFF71BFFFFF717FD5B4B012801468D
:1016AC00187013D0A0F13003092B27D8B8F1000F14
:1016BC0010D104A8FFF743FF8020FFF78DFE04A88C
:1016CC00FFF734FF04A8FEF73BFDC6B2C820FEF7B7
:1016DC0087FDE0E707A8FFF732FF24B907A8FEF75C
:1016EC002FFD0644F6B20124A6F18000C0B2FFF72C
:1016FC0073FE07A8FFF71AFFA146E7E7B8F1000F42
:10170C0022D1A0F14103032B1ED8412818D0422826
:10171C0018D043280CBF2D272B2739460AA8FFF7D2
:10172C000EFF3846FEF70CFD0644F6B286F080003C
:10173C00FFF752FE0AA8FFF7F9FE4FF00108C5E7C4
:10174C002A27EAE72F27E8E7B9F1000F39D0232938
:10175C0037D12B2F13D104A800F07DF9054607A82B
:10176C0000F079F90544C020FFF736FE2A462749D8
:10177C000DA800F00BFA0DA8FFF7D8FEA6E72D2F49
:10178C0008D104A800F067F9054607A800F063F932
:10179C002D1AE8E72A2F08D104A800F05CF90546B9
:1017AC0007A800F058F94543DDE72F2FDBD104A83B
:1017BC0000F051F9054607A800F04DF995FBF0F53E
:1017CC00D1E72A2982D10024FFF7A7FE26468DF8FF
:1017DC0010A08DF81CA08DF828A0A146A0462027AB
:1017EC0074E700BF202C00080010024000080140E4
:1017FC00000C01400802002000540040A0860100AB
:10180C005C020020003801409C0200202E2C0008B5
:10181C000E4B82B09A6942F001029A619A6902F009
:10182C0001020092009ADA6942F08052DA61DB69B7
:10183C00074A03F080530193019B536823F0E06344
:10184C0043F00073536002B0704700BF00100240B9
:10185C000000014010B5044686B01022002102A8F9
:10186C0000F028F92268154B9A4224D1144C02A995
:10187C00A369144843F00803A361A36903F00803A8
:10188C000093009B4FF440730293122303930323A2
:10189C000593FEF713FD0C4A536843F0E06343F0E5
:1018AC0002035360E36943F40013E361E36903F457
:1018BC0000130193019B06B010BD00BF0054004003
:1018CC0000100240000C01400000014010B504461D
:1018DC0086B01022002102A800F0ECF82268174B09
:1018EC009A4228D103F558439A6902A942F48042DE
:1018FC009A619A69124802F480420092009A9A699D
:10190C0042F004029A619B6903F004030193019B6A
:10191C004FF4007302930223039303230593FEF702
:10192C00CDFC4FF480630293002302A90448039377
:10193C000493FEF7C3FC06B010BD00BF0038014095
:10194C00000801407047FEE7FEE7FEE7FEE7704740
:10195C0070477047FEF732BC70B50E4615460C4604
:10196C00A31B9D4201DC284670BDAFF3008004F838
:10197C00010BF5E708B50A4B0246196809B9094984
:10198C0019606946186802448A4206D900F068F862
:10199C000C2303604FF0FF3008BD1A6008BD00BF78
:1019AC00F8010020A40200204FF0FF3070474FF4E4
:1019BC00005300204B607047012070470020704797
:1019CC000F4B1A6842F001021A6059680D4A0A401E
:1019DC005A601A6822F0847222F480321A601A68F3
:1019EC0022F480221A605A6822F4FE025A604FF4E4
:1019FC001F029A604FF00062034B9A60704700BF61
:101A0C00001002400000FFF800ED00E0002103E0B0
:101A1C000B4B5B58435004310A480B4B42189A420B
:101A2C00F6D30A4A02E0002342F8043B084B9A42E0
:101A3C00F9D3FFF7C5FF00F019F8FFF7B5FD7047B4
:101A4C00F82D000800000020DC010020DC01002043
:101A5C00A4020020FEE70A22002100F03BB900009E
:101A6C00014B1868704700BF0C00002070B50025B2
:101A7C000C4E0D4CA41BA410A54209D101F0B6F8D4
:101A8C0000250A4E0A4CA41BA410A54205D170BD1A
:101A9C0056F8253098470135EEE756F8253098472B
:101AAC000135F2E7F02D0008F02D0008F02D0008AC
:101ABC00F42D000803460244934200D1704703F80A
:101ACC00011BF9E770B50E46054618B183690BB9D1
:101ADC0000F0C8FAAB69AC6813B9284600F0C2FA3A
:101AEC00234B9C4217D16C68A3891B071DD5236916
:101AFC00DBB1013EA36816F8011F013BA360E9B9F5
:101B0C00002B2EDA22460A21284600F0F9F8013083
:101B1C0011D00A2070BD174B9C4201D1AC68E3E791
:101B2C00154B9C4208BFEC68DEE72146284600F0C6
:101B3C0039F90028DDD04FF0FF3070BD002B04DAEE
:101B4C00A269934206DB0A2904D023685A1C22603E
:101B5C001970CFE72246284600F0D2F80130C9D1DF
:101B6C00E9E70A2023685A1C2260187070BD00BF78
:101B7C00702C0008902C0008502C0008024B0146D9
:101B8C001868FFF79FBF00BF0C0000200EB44FF485
:101B9C00027100B59CB0ADF814106FF000410491C7
:101BAC0007914FF6FF711DAB02900690084853F851
:101BBC00042BADF81610006802A9019300F05CFC30
:101BCC000022029B1A701CB05DF804EB03B0704746
:101BDC000C0000202DE9F84F8046894692461F469E
:101BEC008B465D460A9815F8014B00F0C5FA204467
:101BFC00467816F008060BD12D2C0BD101262C782B
:101C0C000BF1020567B1102F14D1302C0AD011E062
:101C1C00AB46E6E72B2C04BF2C780BF10205F1E761
:101C2C00302C27D12B7803F0DF03582B4BD1102706
:101C3C006C780235002E0CBF6FF000414FF0004164
:101C4C000022B1FBF7FE104607FB1E1CA4F130036B
:101C5C00092B11D81C46A7421DDD531C07D0864505
:101C6C0016D301D1A44513DB012200FB074015F864
:101C7C00014BEBE70A27DDE7A4F14103192B01D84F
:101C8C00373CE8E7A4F16103192B04D8573CE2E791
:101C9C004FF0FF32EBE7531C08D122230846C8F85B
:101CAC000030BAF1000F07D1BDE8F88F06B1404201
:101CBC00BAF1000F0CD022B1013DCAF80050BDE8BA
:101CCC00F88F4D46F9E73024002FB3D10827B1E740
:101CDC00BDE8F88F084B37B51C68084D236A002BFC
:101CEC0008BF2B46009313460A4601462046FFF7D1
:101CFC0071FF03B030BD00BF0C000020700000204D
:101D0C00F8B50E461446054618B183690BB900F0B8
:101D1C00A9F9214B9C422AD16C68A369A360A389C1
:101D2C001A072ED5236963B323692068F6B2C01A4B
:101D3C0063693746984204DB2146284600F028F9AF
:101D4C0028BBA3680130013BA36023685A1C2260A6
:101D5C001E706369984204D0A389DB0719D50A2E3B
:101D6C0017D12146284600F013F990B10FE00B4B28
:101D7C009C4201D1AC68D0E7094B9C4208BFEC688F
:101D8C00CBE72146284600F00DF80028CCD04FF0C8
:101D9C00FF373846F8BD00BF702C0008902C0008A7
:101DAC00502C0008324B70B51D6806460C4625B108
:101DBC00AB6913B9284600F055F92E4B9C420FD154
:101DCC006C68B4F90C309AB215072CD4D00611D427
:101DDC000922326043F04003A3814FF0FF3070BD05
:101DEC00254B9C4201D1AC68EBE7244B9C4208BFCD
:101DFC00EC68E6E7510712D5616B41B104F144037D
:101E0C00994202D0304600F031FA00236363A38973
:101E1C0023F02403A3810023636023692360A38937
:101E2C0043F00803A38123694BB9A38903F42073FE
:101E3C00B3F5007F03D02146304600F0C5F9A289E6
:101E4C0012F001030CD00023A36063695B42A36111
:101E5C00236953B9B4F90C3013F08000BAD170BDBA
:101E6C00920758BF6369A360F2E70020F7E700BF51
:101E7C000C000020702C0008902C0008502C00083E
:101E8C008A892DE9F041054610070C465AD44B6857
:101E9C00002B05DC0B6C002B02DC0020BDE8F08174
:101EAC00E66A002EF9D0002312F480522F682B60C2
:101EBC0033D0606DA3895A0705D56368C01A636B6C
:101ECC000BB1236CC01A00230246E66A216A28462D
:101EDC00B047431CA38906D129681D294BD82B4A2E
:101EEC00CA40D60747D5002262602269D904226015
:101EFC0004D5421C01D12B6803B96065616B2F605E
:101F0C000029CAD004F14403994202D0284600F0BB
:101F1C00ADF900206063BDE8F081216A01232846F9
:101F2C00B047411CC6D12B68002BC3D01D2B01D050
:101F3C00162B01D12F60B0E7A38943F04003A38196
:101F4C00BDE8F0810F69002FA7D0930718BF0023BD
:101F5C000E6808BF4B69A6EB07080F608B60B8F1E1
:101F6C00000F9ADD43463A46216A2846A66AB047D6
:101F7C00002807DCA38943F04003A3814FF0FF3016
:101F8C00BDE8F0810744A8EB0008E8E70100402019
:101F9C0038B50B6905460C46DBB118B183690BB932
:101FAC0000F060F80C4B9C4209D16C68B4F90C3011
:101FBC007BB121462846BDE83840FFF761BF074B8F
:101FCC009C4201D1AC68F1E7054B9C4208BFEC6820
:101FDC00ECE7002038BD00BF702C0008902C0008E6
:101FEC00502C0008014900F0A9B800BF9D1F000843
:101FFC00002310B50446036043608360818143660F
:10200C00C281036143618361194608225C30FFF78A
:10201C0051FD054B24626362044BA362044BE362E3
:10202C00044B236310BD00BFBD290008DF29000845
:10203C00172A00083B2A000870B568254A1E55432C
:10204C000E4605F1740100F05DF9044640B1002123
:10205C0080E842000C30A06005F16802FFF72AFD11
:10206C00204670BD836910B5044633BB8364C364DA
:10207C000365124B124A1B688262984204BF01230B
:10208C00836100F01FF86060204600F01BF8A06030
:10209C00204600F017F80022E06004216068FFF78A
:1020AC00A7FF01220921A068FFF7A2FF022212213B
:1020BC00E068FFF79DFF0123A36110BD4C2C0008C5
:1020CC00F11F0008F8B51C4B07461E68B36913B91D
:1020DC003046FFF7C7FF4836B4687368013B03D539
:1020EC00336833B13668F7E7B4F90C506DB1683426
:1020FC00F4E704213846FFF79FFF30600028F1D148
:10210C000C2304463B602046F8BD4FF6FF73E38179
:10211C0001236566A3812560A56065602561656105
:10212C00A5610822294604F15C00FFF7C3FC656336
:10213C00A563A564E564E6E74C2C00082DE9F8439B
:10214C0080468946002600F1480414B93046BDE8A3
:10215C00F883A5686768013F01D52468F5E7AB896A
:10216C00012B07D9B5F90E30013303D0294640466F
:10217C00C84706436835EEE7D0F8EC00704770B5F9
:10218C000E46B1F90E1090B0002914461D4607DA20
:10219C0000232B60B3891A0610D44FF480630EE031
:1021AC0001AA00F077FC0028F2DB029A02F47042DC
:1021BC00A2F500535A425A412A60EEE74023002010
:1021CC00236010B070BD00008B8973B59D07064667
:1021DC000C4607D504F14703236023610123636197
:1021EC0002B070BD01AB6A46FFF7C9FF0099054606
:1021FC00304600F087F848B9B4F90C309A05EFD4A2
:10220C0023F0030343F00203A381E3E70D4BB36216
:10221C00A389206043F08003A381009B206163614C
:10222C00019B5BB1B4F90E10304600F045FC28B1AF
:10223C00A38923F0030343F00103A381A3891D4366
:10224C00A581CDE7F11F000882B001B901A942B107
:10225C004BB113780B601278101C18BF012002B020
:10226C0070471046FBE76FF00100F8E738B50546FC
:10227C00002943D051F8043C0C1F002BB8BFE418C4
:10228C0000F06FFC1E4A1368104633B9636014608B
:10229C002846BDE8384000F065BCA3420BD9216844
:1022AC006218934201BF1A685B685218226063601F
:1022BC000460EDE713465A680AB1A242FAD91968CC
:1022CC005818A0420BD1206801445818824219605A
:1022DC00DED110685268014419605A60D8E702D9FF
:1022EC000C232B60D4E7206821188A4201BF1168A7
:1022FC0052680918216062605C60C9E738BD00BF94
:10230C00FC01002070B5CD1C25F0030508350C2D03
:10231C0038BF0C25002D064601DBA94203D90C233E
:10232C003360002070BD00F01CFC234A1468214669
:10233C0091B9224C23681BB9304600F029FB206070
:10234C002946304600F024FB431C26D10C23304692
:10235C00336000F007FCE4E70B685B1B1AD40B2B13
:10236C000FD90B60CC18CD50304600F0FBFB04F1BC
:10237C000B00231D20F00700C31A1BD05A42E25059
:10238C0070BD8C420BBF63684B681360636018BFF1
:10239C000C46E9E70C464968CAE7C41C24F0030460
:1023AC00A04205D0211A304600F0F2FA0130CDD00F
:1023BC002560D9E770BD00BFFC01002000020020A1
:1023CC002DE9F0478E6882469E420C46914698460F
:1023DC0035D88A8912F4906F31D0022325680969A7
:1023EC006F1A656905EB450595FBF3F508F10103DB
:1023FC003B449D4238BF1D46530531D52946FFF756
:10240C0081FF064650B90C23CAF80030A3894FF05F
:10241C00FF3043F04003A381BDE8F0873A462169C1
:10242C0000F07AFBA38923F4906343F08003A3812B
:10243C0026613E44266046466561ED1BA560464517
:10244C0028BF464649463246206800F070FBA36818
:10245C0000209B1BA36023681E442660BDE8F08708
:10246C002A4600F080FB06460028E1D1216950463F
:10247C00FFF7FCFEC7E700002DE9F04F9DB003937A
:10248C008B8980461C060D4616460FD50B696BB919
:10249C004021FFF737FF2860286128B90C23C8F8C2
:1024AC0000304FF0FF30C4E040236B6100230993F0
:1024BC0020238DF8293030234FF0010B8DF82A3072
:1024CC0037463C4614F8013B002B3CD1B7EB060ACF
:1024DC000BD05346324629464046FFF771FF013078
:1024EC0000F0A280099B534409933B78002B00F029
:1024FC009B8000234FF0FF320493079305920693C1
:10250C008DF853301A9305222178504800F0F6FAD2
:10251C00671C049BD8B9D90644BF20228DF85320E0
:10252C001A0744BF2B228DF8532022782A2A16D062
:10253C0000210A20079A27463B780134303B092BAF
:10254C0050D9C9B111E0252BC0D02746B9E73F4A75
:10255C003C46801A0BFA00F018430490D3E7039A18
:10256C00111D12680391002A01DB079204E052420C
:10257C0043F00203079204933B782E2B0DD17B780A
:10258C00791C2A2B32D1039B02371A1D1B6803922C
:10259C00002BB8BF4FF0FF3305932D4C0322397835
:1025AC00204600F0ABFA38B14023001B03FA00F0D0
:1025BC00049B0137034304933978062225487E1C7B
:1025CC008DF8281000F09AFA002835D0224BFBB970
:1025DC00039B073323F0070308330393099B4B44F6
:1025EC0009936DE700FB02320121A4E700230A24C2
:1025FC00184605930F463A780131303A092A03D927
:10260C00002BCAD00590C8E704FB00200123F1E79A
:10261C0003AB00932A46114B04A94046AFF300804C
:10262C00B0F1FF3F8146D9D1AB895B063FF539AF9D
:10263C0009981DB0BDE8F08F03AB00932A46074BF9
:10264C0004A9404600F084F8EAE700BFBA2C000861
:10265C00C02C0008C42C000800000000CD2300088A
:10266C002DE9F04791461F468A680B69064693424E
:10267C00B8BF1346C9F8003091F843200C46DDF87A
:10268C00208012B10133C9F800302368990642BF8B
:10269C00D9F800300233C9F80030256815F006056A
:1026AC0007D104F1190AE368D9F800209B1A9D425E
:1026BC002ADB94F843302268003318BF01239206BA
:1026CC002FD404F1430239463046C047013022D0A2
:1026DC002368E56803F00603042B18BF0025D9F81E
:1026EC0000204FF0000908BFAD1AA368226908BF8B
:1026FC0025EAE5759342C4BF9B1AED181A344D4573
:10270C001BD10020BDE8F0870123524639463046E4
:10271C00C047013003D14FF0FF30BDE8F0870135E1
:10272C00C1E73020E11881F843005A1C94F8451099
:10273C002244023382F84310C3E701232246394670
:10274C003046C0470130E6D009F10109D7E7000057
:10275C002DE9F04317460A7E85B06E2A9846064648
:10276C000C460C9B01F1430E00F0BC801AD8632A76
:10277C002ED00AD8002A00F0C880582A00F08A808F
:10278C0004F1420584F842202AE0642A01D0692A27
:10279C00F6D121681A6811F0800F23D0111D196031
:1027AC00136827E0732A00F0B48008D86F2A2AD067
:1027BC00702AE5D10A6842F020020A6003E0752A0B
:1027CC0021D0782ADCD178226F4984F8452064E046
:1027DC001A6801F14205111D1960136884F8423022
:1027EC000123A3E011F0400F02F104011960D7D0CE
:1027FC00B2F90030002B03DA2D225B4284F843201F
:10280C0062490A2217E02068196810F0800F03D083
:10281C00081D18600B6806E010F0400F01F1040071
:10282C001860F7D00B886F2A14BF0A220822574968
:10283C00002084F843006568002DA560C0F29C80E0
:10284C00206820F004002060002B3FD1002D40F0C8
:10285C0095807546082A0BD12368DA0708D52369B9
:10286C0062689A42DEBF302305F8013C05F1FF3562
:10287C00AEEB05032361CDF800803B4603AA21464D
:10288C003046FFF7EDFE013055D14FF0FF3005B06B
:10289C00BDE8F08381F845203C492268186812F0A5
:1028AC00800F00F104051D6001D0036802E055069D
:1028BC00FBD50388D00744BF42F0200222601BB92D
:1028CC00226822F0200222601022B1E77546B3FB89
:1028DC00F2F002FB1033CB5C05F8013D03460028F7
:1028EC00F5D1B7E708681A6810F0800F496904D071
:1028FC00101D18601368196007E010F0400F02F10A
:10290C00040018601368F6D0198000237546236103
:10291C00B1E71A68111D1960156800216268284614
:10292C0000F0ECF808B1401B606063682361002381
:10293C0084F843309FE723692A4639463046C0471E
:10294C000130A2D023689B0707D5002504F1190993
:10295C00E368039A9B1A9D4205DBE068039B98424F
:10296C00B8BF184693E701234A4639463046C0475C
:10297C0001308AD00135EBE7002BA7D10B7804F19D
:10298C00420584F8423065E7DC2C0008CB2C0008AB
:10299C0038B50023054C054608462360FEF7EAFFD0
:1029AC00431C02D1236803B12B6038BDA002002068
:1029BC0010B50C46B1F90E1000F0FCF80028ABBFB6
:1029CC00636DA3891B1823F48053ACBF6365A3818B
:1029DC0010BD2DE9F0411F468B890546DB050C46E1
:1029EC00164605D502230022B1F90E1000F074F83A
:1029FC00A389324623F48053A381B4F90E103B46CD
:102A0C002846BDE8F04100F023B810B50C46B1F9EA
:102A1C000E1000F061F8431CA38915BF606523F408
:102A2C00805343F48053A38118BFA38110BDB1F927
:102A3C000E1000F01FB849B1FF2A8BBF8A230A7011
:102A4C000360012088BF4FF0FF3070470846704785
:102A5C0038B50546084611460022054C22601A4638
:102A6C00FEF726FB431C02D1236803B12B6038BD53
:102A7C00A002002038B50023054C0546084623600B
:102A8C00FEF792FF431C02D1236803B12B6038BDC3
:102A9C00A002002038B50023064C05460846114616
:102AAC002360FEF784FF431C02D1236803B12B6023
:102ABC0038BD00BFA002002038B50023054C0546E8
:102ACC0008462360FEF778FF431C02D1236803B14C
:102ADC002B6038BDA002002038B5054608461146CB
:102AEC000022054C22601A46FEF768FF431C02D1F7
:102AFC00236803B12B6038BDA002002010B5C9B209
:102B0C0002449042034601D1002010BD1C780130D4
:102B1C008C42F6D1184610BD10B5431E0A449142A2
:102B2C0000D110BD11F8014B03F8014FF7E78842B3
:102B3C0010B501EB020303D8421E99420CD110BD13
:102B4C009842F9D28118D21AD34200D110BD13F891
:102B5C00014D01F8014DF7E711F8014B02F8014F57
:102B6C00EBE770477047F8B5074614460E4621B997
:102B7C001146BDE8F840FFF7C5BB22B9FFF776FB5D
:102B8C0025462846F8BD00F027F884420FD9214687
:102B9C003846FFF7B7FB05460028F2D031462246EF
:102BAC00FFF7BAFF31463846FFF760FBE9E73546D9
:102BBC00E7E7000038B50546084611460022054CEB
:102BCC0022601A46FEF7C8FE431C02D1236803B1EB
:102BDC002B6038BDA002002051F8040C0028A0F195
:102BEC000400BCBF0B58C01870470000F8B500BFFC
:102BFC00F8BC08BC9E467047F8B500BFF8BC08BCD2
:042C0C009E46704729
:102C100002030405060708090A0B0C0D0E0F10101D
:102C20002048656C6C6F2054657374200D0025641A
:102C30000000000000000000000102030406070875
:102C40000900000000010203040000001000002041
:102C50000000000000000000000000000000000074
:102C60000000000000000000000000000000000064
:102C70000000000000000000000000000000000054
:102C80000000000000000000000000000000000044
:102C90000000000000000000000000000000000034
:102CA0000000000000000000000000000000000024
:102CB0004300504F534958002E00232D302B200045
:102CC000686C4C00656667454647003031323334E6
:102CD0003536373839414243444546003031323386
:102CE0003435363738396162636465660000202008
:102CF00020202020202020282828282820202020AC
:102D0000202020202020202020202020202088106B
:102D100010101010101010101010101010100404CB
:102D200004040404040404041010101010101041D2
:102D30004141414141010101010101010101010143
:102D400001010101010101010110101010101042D8
:102D50004242424242020202020202020202020213
:102D600002020202020202020210101010200000F1
:102D70000000000000000000000000000000000053
:102D80000000000000000000000000000000000043
:102D90000000000000000000000000000000000033
:102DA0000000000000000000000000000000000023
:102DB0000000000000000000000000000000000013
:102DC0000000000000000000000000000000000003
:102DD00000000000000000000000000000000000F3
:102DE00000000000000000000000000000000000E3
:042DF00031010008A5
:042DF4000D010008C5
:102DF800010000001000000000A24A04100000209A
:102E080000000000702C0008902C0008502C0008CE
:102E180000000000000000000000000000000000AA
:102E2800000000000000000000000000000000009A
:102E3800000000000000000000000000000000008A
:102E4800000000000000000000000000000000007A
:102E5800000000000000000000000000000000006A
:102E68004300000000000000000000000000000017
:102E7800000000000000000000000000000000004A
:102E880043000000000000000000000000000000F7
:102E9800000000000000000000000000000000002A
:102EA80043000000000000000000000000000000D7
:102EB800000000000000000000000000000000000A
:102EC80043000000000000000000000000000000B7
:102ED80000000000000000000000000000000000EA
:102EE8004300000000000000000000000000000097
:102EF80000000000000000000000000000000000CA
:102F08004300000000000000000000000000000076
:102F180000000000000000000000000000000000A9
:102F28004300000000000000000000000000000056
:102F38000000000000000000000000000000000089
:102F4800432A00085522000800000000ED2C000864
:102F5800B82C00082D2C00082D2C00082D2C00085A
:102F68002D2C00082D2C00082D2C00082D2C0008D5
:102F78002D2C00082D2C0008FFFFFFFFFFFFFFFF8F
:102F8800FFFFFFFFFFFF00000100415343494900D5
:102F98000000000000000000000000000000000029
:102FA80000000000000000000000415343494900B0
:102FB8000000000000000000000000000000000009
:0C2FC800000000000000000000000000FD
:0400000508001A19BC
:00000001FF
